:100000000C94A2000C94BF000C94BF000C94BF0091
:100010000C94BF000C94BF000C94BF000C94BF0064
:100020000C94BF000C94BF000C94BF000C94BF0054
:100030000C94BF000C94BF000C94BF000C94BF0044
:100040000C94BF000C94BF000C94BF000C94BF0034
:100050000C94BF000C94BF000C94BF000C94BF0024
:100060000C94BF000C94BF000C94BF000C94BF0014
:100070000C94BF000C94BF000C94BF000C94BF0004
:100080000C94BF000C94BF000C94BF000C94BF00F4
:100090000C9497010C94BF000C94BF000C94BF000B
:1000A0000000000300010200000101000000000048
:1000B0000000000000000000000000000000000040
:1000C0000000000000000000000504000506020416
:1000D0000103000100010200010203040502030301
:1000E00005040605040607030700010202030001D8
:1000F00007060202000502010500040101040404D0
:1001000003030303030300000200000301010000D6
:100110000102020202050505050305201001204029
:100120000410020801020102040102040810200464
:1001300008082010402010408008800102040408B4
:100140000102804011241FBECFEFCDBFDFE3DEBF31
:1001500018E2A0E0B8E2E4E0F6E002C005900D92FB
:10016000A430B107D9F728E2A4E0B8E201C01D929B
:10017000A631B207E1F70E94FB010C9400030C9436
:100180000000893290F490E0FC01E55EFE4F24917E
:100190002F3F59F0FC01EE50FF4FA49180E2A89F41
:1001A000D0011124BC5F11962C930895893208F078
:1001B00064C090E0FC01E55EFE4F24912F3F09F4FE
:1001C0005CC0FC01E056FF4FA491AA2319F1A130B5
:1001D00081F000F1A630F0F430E1A39FD0011124AA
:1001E000A05AB54F11963C9111973F7E11963C93C2
:1001F00011C0FC01E753FF4FE4913091010AEC5F1D
:1002000041E050E001C0440FEA95EAF740954323EE
:100210004093010AFC01EE50FF4FA49130E2A39FEE
:10022000D0011124BC5F3C91322379F06115710536
:1002300019F416962C9308956230710519F41796E7
:100240002C93089515962C930895FC01E753FF4FC6
:100250008491109731F08F3F21F05096A80FB11D77
:1002600002C0A0E0B0E09FB7F8948C91672B11F426
:10027000877F01C088608C939FBF0895CF93DF93E1
:100280008FB7F89420910A2830910B2840910C28C0
:1002900050910D28E091BA0A9091B60A90FF06C0DD
:1002A0002F5F3F4F4F4F5F4FE091BA0A8FBFA09132
:1002B0001428B0911528C0911228D09113280E94BB
:1002C000E602EC9F9001ED9F300D1124620F731F29
:1002D000811D911DDF91CF910895CF92DF92EF9212
:1002E000FF920E943E016B017C0120E4C20E22E4D9
:1002F000D21E2FE0E21EF11C80E4C81682E4D8066C
:100300008FE0E806F10438F40E943E01C616D706D5
:10031000E806F906C8F30E943E016C157D058E05BE
:100320009F05C8F3FF90EF90DF90CF9008951F9244
:100330000F920FB60F9211242F933F934F935F9319
:100340006F937F938F939F93AF93BF9340910628B2
:10035000509107286091082870910928209104285D
:10036000309105288091102890911128480F591F2D
:10037000611D711D80910E2890910F28820F931F8F
:10038000883E23E0920730F0885E93404F5F5F4FD6
:100390006F4F7F4F80930428909305284093062841
:1003A00050930728609308287093092880910A28A1
:1003B00090910B28A0910C28B0910D280196A11DB9
:1003C000B11D80930A2890930B28A0930C28B0931A
:1003D0000D2881E08093B60ABF91AF919F918F91D4
:1003E0007F916F915F914F913F912F910F900FBE31
:1003F0000F901F90189590E088ED84BF9093610056
:1004000080E094E2A4EFB0E080930028909301286C
:10041000A0930228B09303288091020686608093FF
:10042000020680910006816080930006809102069A
:100430008F7C809302068091A0008F788093A0002B
:10044000809102068061809302061092E20581E0AD
:100450008093E40583E08093010A8FEF90E080931E
:10046000260A9093270A80E890E08093380A9093B8
:10047000390A80933A0A90933B0A80933C0A9093FE
:100480003D0A8BE08093000A8091E50581608093AE
:10049000E5058091E50582608093E505E0E8FAE0F6
:1004A00037E02FEF90E885E03183248795878083BC
:1004B0007096E03C4AE0F407B9F780E094E080935E
:1004C00014289093152880911428909115282FEFC7
:1004D00030E0B9010E94D202609312287093132871
:1004E0008091142890911528E8EEF3E0BF010E9456
:1004F000D202609310287093112880911428909153
:100500001528BF010E94D20280930E2890930F28D5
:100510002093BC0A3093BD0A8091B50A8160809314
:10052000B50A84E08093B00A8091B00A816080931C
:10053000B00A78948CE10E94C10061E070E08CE127
:100540000E94D6008DE10E94C10061E070E08DE163
:100550000E94D60083E20E94C10061E070E083E265
:100560000E94D6008EE10E94C10061E070E08EE141
:100570000E94D60081E00E94C100C0E0D0E061E0AE
:1005800070E081E00E94D6000E946D0160E070E0A2
:1005900081E00E94D6000E946D01209781F30E94A5
:1005A0000000EDCFAA1BBB1B51E107C0AA1FBB1F58
:1005B000A617B70710F0A61BB70B881F991F5A95EF
:1005C000A9F780959095BC01CD0108950E94F10294
:1005D000A59F900DB49F900DA49F800D911D112497
:1005E0000895A29FB001B39FC001A39F700D811D0C
:1005F0001124911DB29F700D811D1124911D08952C
:04060000F894FFCF9C
:040604000024F400DA
:00000001FF
